:100000000C94B7010C94D4010C94EF010C94D4011E
:100010000C940E1A0C941A190C94E1190C9487196B
:100020000C94B4190C94ED180C945A190C949A1859
:100030000C94D4010C94D4010C94D4010C94D401EC
:100040000C94D4010C94D4010C94D4010C94671D2D
:100050000C94D401650955098D0996095709590968
:100060005D098D09610963095F096D0983096709E4
:1000700087098B0994098D098D098D098D098D09D1
:100080008D098D098D098D097F097D0985096B0908
:1000900089098F097B098D098D098D098D098D09C4
:1000A0008D098D098D098D098D098D098D098D09A0
:1000B0008D098D098D098D098D098D098D098D0990
:1000C0008D098D098D098D098D096F0977097309CE
:1000D0005B09690996098D098D098D098D098D09BD
:1000E0008D098D098D098D098D098D098D098D0960
:1000F0008D098D098D098D098D098D098D098D0950
:100100008D098D098D098D098D0971097909750987
:100110008109040309040C034C00650065004B00D1
:10012000750006034C0033001201100100000008A6
:10013000A02047420001010200010000FC001C3227
:100140002123242B3433433B424B3A31444D152D6C
:100150001B2C3C2A1D22351A161E26252E363D3E06
:1001600046455A76660D294E55545B5D5D4C520EE0
:1001700041494A580506040C030B830A0109780714
:100180007C7E77706C7D71697A746B7275774A7C4E
:100190007B795A69727A6B73746C757D7071612F9B
:1001A000370F08101820283038404850575F00009B
:1001B0000000000000000000000000000000006DD2
:1001C0000051136A646727000000F2F163625F0068
:1001D000000000000000000000000000000000001F
:1001E0001412111F1459112700004D153B34230020
:1001F0000032210000000050482B40103A383028CF
:100200002018000000000000373F5E0000000000E2
:1002100000000000000000000000000000000000DE
:1002200000000000000000000000000000000000CE
:1002300000000000000000000000A9AAADAC654667
:10024000494A4B4C4D4E52504F515458959697BD7C
:10025000C0C1C2C3C4C5C6AFB0B1B2B3B6B7BCBEED
:10026000BFC8C9CACBC700004D4143524F205245B9
:1002700043400040444F4E454000524553455400D2
:1002800040444F4E45400005010906A10175019506
:1002900008050719E029E715002501810295017578
:1002A0000881039505750105081901290591029535
:1002B000017503910395067508150025FF050719BB
:1002C0000029FF8100C00600FF0901A101150026D9
:1002D000FF007508850195070900B20201850295A6
:1002E000830900B20201C005010980A1018503153F
:1002F0000125B7190129B7751095018100C0050CBA
:100300000901A10185041501269C0219012A9C02FC
:10031000751095018100C009023B00020100C0FA7E
:10032000090400000103010100092101010001226B
:100330003F000705810308000A09040100010300CA
:100340000000092101010001225100070583030873
:10035000000A000001000800400000010004000045
:10036000010008002000400080000001000411246A
:100370001FBECFE5D8E0DEBFCDBF11E0A0E6B0E004
:10038000E2EBF2E402C005900D92AA36B107D9F76C
:1003900016E0AAE6B1E001C01D92A837B107E1F767
:1003A0000E94BB160C9457210C940000A82FB92F63
:1003B00080E090E041E050EA609530E009C02D9186
:1003C00082279795879510F084279527305EC8F38C
:1003D0006F5FA8F30895EADF8D939D930895CF93FF
:1003E000CFB7CF93C395839BE9F7839B0EC0839BC5
:1003F0000CC0839B0AC0839B08C0839B06C0C0912E
:100400001804C395C0931804A3C0DF93C0911704C8
:10041000DD27C15EDB4F839B02C0DF91E6CF2F93C8
:100420000F931F9300B32FEF03FB20F94F933F93DC
:1004300010B34FEF012703FB21F93BE031C04E7FA2
:10044000012F10B3216028C0102F4D7F22600000C3
:1004500000B329C04B7F2460012F000010B32BC0D4
:1004600010B3477F28602AC04F7E00B320612CC0A4
:100470004F7D10B320622FC04F7B00B3206432C089
:10048000422700B349934FEF0000102713FB20F9D8
:1004900010B31C70C9F1297F91F2012703FB21F9E8
:1004A00000B3237F89F2315058F1102713FB22F952
:1004B00010B3277E79F2012703FB23F92F7C81F209
:1004C00000B3102713FB24F92F7971F200C010B389
:1004D000012703FB25F92F7359F200C000B3102741
:1004E00013FB26F9223040F200C010B3012703FBB2
:1004F00027F9243028F64F77206810B30000F9CF91
:1005000010E81ABF002719C03B503195C31BD040DB
:1005100010E81ABF0881033CF9F00B34E9F0209190
:1005200015041981110F1213EDCF4A81441F0936AA
:1005300041F10D3211F0013E29F700931D043F9166
:100540004F911F910F912F91DF91CAB7C7FD4ACFED
:10055000CF91CFBFCF91189520911D04222379F31D
:1005600010911B041123C1F53430C2F130931B04E8
:1005700020931604109117043BE0311B30931704AD
:100580002DC000911B0401303CF50AE54F7049F481
:100590003091600034FD24C000936000CEEFD3E0C2
:1005A00023C0433049F03091090434FD19C0009351
:1005B0000904CAE0D4E018C03091350434FD10C0FD
:1005C00000933504C6E3D4E00FC02795A8F451503A
:1005D000A9F4220F0000F9CF4AE503C042ED01C0A3
:1005E000432FC4E1D0E032E011B31C60939A11BBF9
:1005F00002B320E41CE05F93012756E002BB27957D
:1006000020F4515021F4220FF9CF012756E00000C9
:100610003B5A02BBD0F2279528F4515029F4220FFF
:100620000000F9CF012756E0279502BB20F4515076
:1006300021F4220FF9CF012756E02991332302BB81
:1006400021F6037F10911C04110FC651D04002BB4C
:1006500011F01093150410E81ABF086011B3137F4E
:10066000402F437F5F9100C000C002BB11BB42BB63
:1006700066CF85B78C6085BF8BB780688BBF8BE4F6
:1006800080930A04809336048AE58093090480935A
:10069000350408951F93CF93DF9360911B0463503B
:1006A00067FDB7C080911704CCE0D0E0C81BD1092A
:1006B000C15EDB4F809116048D3209F097C068301F
:1006C00009F0A5C083EC8093FE038AE58093600067
:1006D00010926A019881892F807629F0CE010E94BC
:1006E000D010282F70C02A81109207048981882396
:1006F00049F49F7119F481E0809307041092080473
:1007000022E05AC0853019F420931C0454C086306E
:10071000E1F58B81813041F488E291E090931A04F5
:100720008093190422E12DC0823029F18330F9F43D
:100730008A81882341F482E191E090931A048093A6
:10074000190424E01EC0813041F486E191E09093C9
:100750001A04809319042CE014C0823089F482E2D8
:1007600091E090931A048093190426E00AC0813224
:1007700011F0823229F4CE010E945E0D282F01C0B3
:1007800020E080E480936A011EC0883021F421E0DB
:100790008EE194E013C0893019F420931E040BC03D
:1007A0008A3011F421E008C08B3029F48BE4809367
:1007B0000A048093360420E087E094E090931A04C2
:1007C0008093190409C02F3F39F4888187FD2E8159
:1007D00080E880936A0106C08F81882319F48E8196
:1007E000821708F0822F8093610011C080916A0106
:1007F00087FF0DC0CE010E940C108F3F21F48EE1C7
:100800008093600004C0882311F010926100109260
:100810001B048091600084FF46C0809161008F3F7F
:1008200009F441C0182F893008F018E0811B80932B
:1008300061008091FE0398E889278093FE031123CD
:1008400021F12091190430911A0480916A0186FFE8
:100850000AC0912FF901AFEFB3E084918D933196E7
:100860009150D9F708C0912FD901EFEFF3E08D91A6
:1008700081939150E1F7C90101961150810F911DAB
:100880001F5F90931A04809319048FEF93E0612FF8
:100890000E94EB01612F6C5F6C3019F08FEF809339
:1008A00061006093600094E180B38C7031F49150EA
:1008B000D9F710921C0410921504DF91CF911F916B
:1008C00008951F93CF93DF93DC01162FEA018881EF
:1008D00084FF05C0898198E88927898302C08AE559
:1008E0008883AE014E5F5F4F212FFA018D91819376
:1008F00021501216DCF3CA01612F0E94EB011C5F2C
:100900001883DF91CF911F91089545E354E00E9431
:100910006104089549E054E00E9461040895EF9253
:10092000FF920F931F9390E0029621E030E002C007
:10093000220F331F8A95E2F724BB85B32095282325
:1009400025BB80E58A95F1F7E9B226B380B32095FF
:1009500030E040E050E0542F432F322F2227E09424
:10096000FF2400E010E02E293F29402B512B90E07E
:1009700080959095807F907074E0959587957A9595
:10098000E1F790E0A0E0B0E0DC0199278827282B70
:10099000392B4A2B5B2B8091DA00882319F44170A4
:1009A000507002C04F705070B901CA011F910F9171
:1009B000FF90EF9008950F931F93CF93DF93C3E3BE
:1009C000D5E010E000E0812F0E948F0468837983D6
:1009D0008A839B83611571058105910509F0046087
:1009E0001F5F2496163079F7802FDF91CF911F91EA
:1009F0000F910895982F80916C01282F21FD1CC024
:100A00008091DD0080FF07C0993311F496EA03C09E
:100A1000963A09F499E38091DE0080FF07C0983A86
:100A200011F499EA03C0993A09F498EA20FF05C045
:100A3000993A11F09D3A09F490E0892F08951F9397
:100A4000982F1091DC008F3F21F182958695877059
:100A5000809351059F7190934B050E948F040090E5
:100A60004B0504C096958795779567950A94D2F7BC
:100A700061707070672B41F00E94980D882321F4FB
:100A800080914901809375018091750118160CF4CD
:100A900013E0812F1F9108950F931F93182F062F96
:100AA000863A69F1873A20F4893309F085C007C096
:100AB000883A09F444C0893A09F07EC05FC06623D1
:100AC00049F48091DD0080688093DD0010926E0112
:100AD00010926D0180916D0190916E01019690933D
:100AE0006E0180936D0101978050944008F464C0BA
:100AF00080E094E090936E0180936D015DC0662369
:100B000049F48091DD0080688093DD0010927001CF
:100B100010926F0180916F019091700101969093F6
:100B2000700180936F0101978050944008F444C095
:100B300080E094E09093700180936F013DC0662344
:100B400049F48091DE0080688093DE00109272018B
:100B500010927101809171019091720101969093B0
:100B600072018093710101978050944028F180E0D8
:100B700094E090937201809371011EC0662349F442
:100B80008091DE0080688093DE00109274011092E4
:100B90007301809173019091740101969093740197
:100BA0008093730101978050944030F080E094E08E
:100BB000909374018093730180916D0190916E0107
:100BC0008050944091F480916F0190917001805019
:100BD000944059F49091DD0097FF07C081E0982779
:100BE0009F779093DD000E940916812F8C5C8033E3
:100BF000D8F4002321F41092420410924104809111
:100C000041049091420401969093420480934104E0
:100C1000019780509440F9F4812F0E94D10B1092DB
:100C200042041092410417C01237A9F4002321F4A2
:100C300010925305109252058091520590915305E0
:100C400001969093530580935205019780509440EC
:100C500011F40E94460B80E01F910F910895982F88
:100C600088568430A8F48093DF008BED90E060E03C
:100C700071E040E750E00E9429218091DF006FEF92
:100C80000E940D1F80EE90E06FEF0E94D91E26C0DB
:100C9000892F8C56853020F19C3C10F5933761F4F8
:100CA0000E94B6152CE088E190E00FB6F894A89564
:100CB00081BD0FBE21BDFFCF923791F0983921F44D
:100CC00080916C0192E007C0993911F080E008959D
:100CD00080916C0191E0892780936C0181E00895F7
:100CE00081E00895AF92BF92DF92EF92FF920F934F
:100CF0001F93CF93DF9310926605109267051092B1
:100D000068051092690510926A0510926B051092A1
:100D10006C0510926D0510926E0510926F05109281
:100D20007005109271051092720510927305109261
:100D30007405109275051092760510927705109241
:100D400078051092790510927A0510927B05109221
:100D50007C0510927D05A3E3B5E027E534E080E053
:100D600090E044E150E06FEF0FC06193E217F307AA
:100D7000E1F71D921D921D921D9201969F012C5E1E
:100D80003F4F8630910551F0849FF001859FF00D13
:100D9000949FF00D1124ED5BFB4FE7CFC6E5D5E046
:100DA00000E010E0E12C82E0F82EDD24DA94B4E1DA
:100DB000AB2EB12C8BEB94E0B70148E750E00E94DA
:100DC0001121D882D982DA82DB8240E020E030E053
:100DD000B801660F771F660F771F17C08C91843795
:100DE00059F4443048F4FB01E40FF11DEA5AFA4F7C
:100DF000892F852B80834F5F9F5F1196943171F708
:100E00002F5F3F4F2630310579F0522F5295550F05
:100E1000507E2A9DD0012B9DB00D3A9DB00D11241E
:100E2000A554BB4F90E0DACF0F5F1F4F80E890E0F2
:100E3000E80EF91E24960430110509F0BBCF8FEFA0
:100E400080934B05809351056091DC0070E07695AE
:100E5000762F66277795679560507E4F8BEB94E0F1
:100E600048E750E00E941121DF91CF911F910F912F
:100E7000FF90EF90DF90BF90AF900895982F885625
:100E8000843018F48093DF001EC0892F8758873084
:100E900038F48093DC000E9409160E94720613C089
:100EA000892F8C56853078F09C3C78F08091DB005F
:100EB000882321F0892F0E94940A03C0892F0E9461
:100EC000AC091092750181E00895933751F42CE03C
:100ED00088E190E00FB6F894A89581BD0FBE21BDC2
:100EE000FFCF80E0923709F481E008952F923F927E
:100EF0004F925F926F927F928F929F92AF92BF922A
:100F0000CF92DF92EF92FF920F931F93DF93CF93D5
:100F1000CDB7DEB72E970FB6F894DEBF0FBECDBFAC
:100F20000E94DB04982F80917601981729F0909306
:100F30007601892F0E94C81F00E010E0E091DC00DC
:100F4000F0E0EE0FFF1FEE0FFF1FE00FF11FEA5A58
:100F5000FA4F80810E941F058B87833029F00F5F35
:100F60001F4F0430110551F70E94C90E26E635E0E7
:100F70003E832D8383E395E09C838B83222444244A
:100F800055241A8219824C86ED81FE8180809180E1
:100F9000A280B380EB81FC81C080D180E280F380AD
:100FA000ED81FE81C082D182E282F38224E130E0D1
:100FB000429EC001439E900D529E900D1124FC0153
:100FC000ED5BFB4FFE87ED879C0125543B4F3A8735
:100FD000298789819A8180589C4F98878F836624BE
:100FE00077243324339438200C2D0170B694A794C1
:100FF00097948794F694E794D794C7948091780255
:10100000823059F4332009F4CEC0002309F0CBC05C
:101010008C85662D0E94F60AC6C09B85933021F010
:10102000E985FA85108105C08F8198850E9421216C
:10103000182F112309F4B7C080914B0590E0861555
:10104000970539F48091510590E08415950509F4D0
:10105000AAC0002341F080916C0181FD04C0812F62
:101060006FEF0E944C05332031F4002381F0812F73
:101070000E942F0609C0002351F4812F60E00E94D6
:101080004C05812F0E943E07882309F08CC0812FD8
:101090000E94FA04482F8758873008F484C0815E84
:1010A0008D3008F480C04C3C08F07DC0442309F426
:1010B0007AC08091DB008823B1F1ED85FE858081C7
:1010C0000023D1F02091490130E08F5F808381506F
:1010D000992787FD9095821793070CF464C0842F9D
:1010E0000E941A0E282E8091490190E0880F991FC6
:1010F000ED85FE85808357C02091490130E0815005
:10110000ED85FE8580838F5F992787FD90958217F7
:1011100093072CF0842F0E941A0E282E44C0ED85D0
:10112000FE85108240C0332019F4002331F002C044
:10113000002319F4ED85FE851082ED85FE85808102
:1011400087FD31C02091490130E08F5F808381505D
:10115000992787FD9095821793072CF1002341F082
:10116000842F61E00E94F311FB85F093500517C0B6
:101170008091500590E09695982F882797958795B0
:1011800029813A81820F931F860D971D80509E4FB3
:101190000E9421210E94FA0460E00E94F3112FEFC7
:1011A000ED85FE8520830894611C711C8D859E85CC
:1011B00001969E878D87E985FA853196FA87E987BA
:1011C0002F8138852F5F3F4F38872F8334E1631697
:1011D000710409F006CF0894411C511C8D819E8139
:1011E00004969E838D83EB81FC813496FC83EB8394
:1011F00029813A812C5E3F4F3A83298336E043169A
:10120000510409F0C0CE0E94980D882339F48091D2
:101210007501882319F0815080937501822D8560B6
:101220002E960FB6F894DEBF0FBECDBFCF91DF91E3
:101230001F910F91FF90EF90DF90CF90BF90AF90F4
:101240009F908F907F906F905F904F903F902F90E6
:101250000895982F81568A3118F4292F2D5510C0E2
:10126000892F81548A3120F4292F2D5332E009C06F
:10127000892F8153893010F020E002C0292F23519B
:1012800030E0892F992787FD9095A92FB92FFC0170
:10129000B097EF35F10508F040C0E65DFF4FEE0F67
:1012A000FF1F0590F491E02D09942EE139C021E251
:1012B00037C022E235C023E233C024E231C025E248
:1012C0002FC026E22DC027E22BC02CE22AC02DE23F
:1012D00028C02DE225C02EE224C02EE221C02FE23C
:1012E00020C02FE21DC020E31CC020E319C021E371
:1012F00018C021E315C028E214C023E312C023E381
:101300000FC025E30DC026E30CC026E309C027E388
:1013100008C027E305C028E304C0222311F428E312
:1013200032E0832F922F089527E2FBCF25E3F9CFF8
:1013300024E46030720760F488E10FB6F89481BD50
:1013400011BC0FBE28EB3BE0C9010197F1F7FCCFC0
:101350000E94003E80E00895FF920F931F93CF9369
:10136000DF938C5CC82FD0E0CE0180589F4F0E9445
:1013700021218A3C09F065C0CC5BDF4FDC2FCC27F4
:1013800000E098E2F92E01C02196FE01149111238C
:1013900009F457C0812F865A883040F5E12FF0E0DC
:1013A000EE0FFF1FE858F040208131810227802F87
:1013B00090E082239323892B19F0812F61E002C0F2
:1013C000812F60E00E94F3110BC080911E0684FF04
:1013D000FCCF8F2D8A95F1F7892F60E00E9474125F
:1013E0000E94A911982F8C3F81F7CECF812F61E009
:1013F0000E94F3110BC080911E0684FFFCCF8F2D3D
:101400008A95F1F7892F60E00E9474120E94A91159
:10141000982F8C3F81F7812F60E00E94F3110BC061
:1014200080911E0684FFFCCF8F2D8A95F1F7892FBE
:1014300060E00E9474120E94A911982F8C3F81F7DE
:10144000A3CFDF91CF911F910F91FF9008950F933C
:101450001F93DF93CF93CDB7DEB728970FB6F894DD
:10146000DEBF0FBECDBFFE01319698E0DF011D92B9
:101470009A95E9F789836B8308EB1BE005C00E940E
:101480004A03C8010197F1F78091090484FFF7CF5F
:10149000CE01019668E00E948A0428960FB6F8945F
:1014A000DEBF0FBECDBFCF91DF911F910F91089589
:1014B0000F931F93282F192F8091DB00882329F089
:1014C000822F692F0E94270A2CC0892F61E00E9479
:1014D000F31108E20BC080911E0684FFFCCF802F21
:1014E0008A95F1F7892F60E00E9474120E94A91179
:1014F000982F8C3F81F7812F60E00E94F31118E252
:101500000BC080911E0684FFFCCF812F8A95F1F7D6
:10151000892F60E00E9474120E94A911982F8C3FBD
:1015200081F71F910F910895EF92FF920F931F93F0
:10153000CF93DF938C5C90E08C5B9F4FD82FCC27B0
:10154000845490402FE6C030D20708F03FC0805846
:101550009F4F0E9421218A3C09F038C07E010894E7
:10156000E11CF11CFE01149190E000E0812F865AED
:101570008830E8F4E12FF0E0EE0FFF1FE858F0406C
:1015800080810827F70114910FC0A895191721F43D
:10159000802F90E00E94580AC8010E94580AA8951E
:1015A000F7018491912F182F0894E11CF11C812FD1
:1015B000855A8A3028F0112329F01C3C30F3D6CF0D
:1015C0001123A1F680E090E00E94580ADF91CF91AC
:1015D0001F910F91FF90EF9008958091DB00882379
:1015E00021F080E060E00E94270A08950F931F9386
:1015F000182F062F80E09FE20E94580A80E0912F6A
:101600009C5F0E94580A80E09DE20E94580A80E098
:10161000902F9C5F0E94580A80E090E30E94580A35
:101620000E94ED0A1F910F910895CF92DF92EF92E1
:10163000FF920F931F93CF93DF93EC01EE2450E2C0
:10164000C52ED12CC80ED91E0FC0812F0E9429098A
:10165000082FF92E1E1511F40E94ED0A802F9F2DE0
:101660000E94580A2196E12EFE011491112319F0CF
:10167000CC15DD0551F70E94ED0ADF91CF911F9146
:101680000F91FF90EF90DF90CF900895CF93DF936D
:101690008AE792E00E94150BC0E8D0E0A895CE0141
:1016A00065E30E944A2182E690E00E94150B219694
:1016B000CC3AD10599F783E792E00E94150BDF91B0
:1016C000CF9108950F931F93893211F40BE102C05B
:1016D000082F095380E09FE20E94580AA895802FA6
:1016E00090E08C01000F111F080F191F0C591F4F9C
:1016F00080E0F80190810E94580AA89580E0F801E6
:1017000091810E94580AA89580E0F80192810E9478
:10171000580A80E090E30E94580AA8950E94ED0ABA
:101720001F910F910895FF920F931F93182FF62E7C
:10173000662319F401E382E002C00FE280E0902FFB
:101740000E94580AA895193AC1F01A3A38F4173A83
:1017500081F0183A80F4163A89F409C01B3A49F02E
:101760001B3A28F01C3A39F01D3A41F406C006E055
:1017700005C006E103C004E001C00AE182E0902F49
:101780000E94580AA895FF2011F091E301C090E350
:1017900082E00E94580A0E94ED0A1F910F91FF906B
:1017A00008952F923F924F925F926F927F928F9205
:1017B0009F92AF92BF92CF92DF92EF92FF920F93E0
:1017C0001F93DF93CF93CDB7DEB72C970FB6F89466
:1017D000DEBF0FBECDBF8C5C8D8390E08C5B9F4FD6
:1017E000382F22273C832B832050304708F0C7C076
:1017F000A89584E760E00E944C0527E534E080E08E
:1018000090E044E150E06FEF0BC06193E217F30703
:10181000E1F701969F012C5E3F4F8630910551F014
:10182000849FF001859FF00D949FF00D1124ED5BD6
:10183000FB4FEBCF88E692E00E94150B1C861B86BF
:10184000EE24FF248701A8950E94DB04E6E64E2ED5
:10185000E5E05E2E83E395E09A838983662477240E
:10186000D2012D913D914D915C911397E981FA81BF
:1018700080809180A280B3808D929D92AD92BC9227
:101880001397E4E1F0E06E9EC0016F9E900D7E9E86
:10189000900D11247BEB272E74E0372E280E391E75
:1018A00063E4C62E64E0D62EC80ED91E1A86782DA3
:1018B0007170DA01C901B695A795979587958E83C2
:1018C0009F83A887B987B694A79497948794D101EA
:1018D0006C91862F84508A3A08F0CEC020FD05C056
:1018E000772339F0F601108204C0772311F4D60172
:1018F0001C92F601808187FDBFC02091490130E034
:101900008F5F80838150992787FD90958217930779
:101910000CF4B2C0772309F49AC0643769F0F1E09F
:10192000EF16F1040105110509F046C02B853C8531
:101930002F37310509F040C06B857C8569587E4F93
:10194000DB011C92A895E7E0EE0CFF1C001F111FA5
:10195000EA95D1F7EB81FC81EE0DFF1DFC83EB8353
:1019600087E791E0BF010E949809A895FD818F2F1C
:1019700090E080589F4F6AEC0E944A21A89583E727
:1019800092E00E94150B2C960FB6F894DEBF0FBEA6
:10199000CDBFCF91DF911F910F91FF90EF90DF901E
:1019A000CF90BF90AF909F908F907F906F905F90FF
:1019B0004F903F902F900895EB85FC85E958FE4F9E
:1019C0006083862F865A883028F4862F61E00E9433
:1019D000930B19C0862F89538B3110F0693221F493
:1019E000862F0E94620B0FC0673638F480E0962F76
:1019F0000E94580A0E94ED0A06C02B853C852150A2
:101A000030403C872B876B857C856F377105C9F427
:101A1000D801C70177E0880F991FAA1FBB1F7A95CD
:101A2000D1F76B817C81680F791F87E791E00E9475
:101A300098090894E11CF11C011D111D1C861B86D0
:101A400018C08B859C8501969C878B8712C0862F3A
:101A5000865A883070F4EB85FC85E958FE4F608328
:101A6000AB85BC851196BC87AB87862F60E00E9452
:101A7000930B2FEFF60120833A853F5F3A87089456
:101A8000211C311C0894C11CD11C343129F02E8139
:101A90003F81488559850BCF0894611C711C64E017
:101AA00070E0460E571E89819A8104969A83898335
:101AB00096E06916710409F0D3CEC5CEFC0183818E
:101AC000813261F08232D9F0823081F587E193E092
:101AD00090931A04809319048BE3089582818823DC
:101AE00019F0813019F503C089E293E002C082E465
:101AF00093E090931A048093190489E008958481F7
:101B00009581009719F0019789F408C087E892E061
:101B100090931A04809319048FE3089586EC92E061
:101B200090931A048093190481E5089580E0089544
:101B300080918B0582500895582FDB01642F282F48
:101B4000392FF90108C090818C91981711F081E02C
:101B50000895319611968E2F851B8617A0F380E08D
:101B60000895EEE7F2E0A6E8B2E090818C91981734
:101B700049F482E0E538F80711F480E008953196E1
:101B80001196F3CF81E00895FC018081827259F0B3
:101B900091E025E306C08181893209F421839F5FAA
:101BA00031969617C0F30895809118048823B9F4EC
:101BB0008091850590918605019790938605809385
:101BC0008505892BA1F481E080936B0188EE93E079
:101BD00090938605809385050E94351B08C088EE8A
:101BE00093E0909386058093850510921804809168
:101BF0004C0590914D05A0914E05B0914F05019770
:101C0000A109B10980934C0590934D05A0934E0511
:101C1000B0934F050097A105B10549F480916B0180
:101C2000882329F40E94351B82E080936B01809108
:101C30006B010895982F865A883068F4E92FF0E0F8
:101C4000EE0FFF1FE858F040808190917E02892BB3
:101C500080937E029BC0892F8F5A8D3108F062C01D
:101C600084E080938205933B19F482EE90E072C089
:101C7000963B19F489EE90E06DC0973B19F48AEE1B
:101C800090E068C09F3A19F485EB90E063C0903B08
:101C900019F486EB90E05EC0913B19F487EB90E07D
:101CA00059C0973C19F48CEC90E054C0923B19F465
:101CB0008DEC90E04FC09C3B19F483E891E04AC062
:101CC0009D3B19F48AE891E045C09E3B19F482E9F6
:101CD00091E040C09F3B19F484E991E03BC0903C07
:101CE00019F481E292E036C0913C19F483E292E06B
:101CF00031C0923C19F484E292E02CC0933C19F478
:101D000085E292E027C0943C19F486E292E022C07A
:101D1000953C19F487E292E01DC0963CB1F48AE24A
:101D200092E018C0892F84598430D0F483E08093E6
:101D30008205953919F481E890E00CC0963919F4C0
:101D400082E890E007C0973919F080E090E002C087
:101D500083E890E0909384058093830584E017C026
:101D600080918B05883050F080E892E061E070E06F
:101D700046E050E00E940A2182E009C0E82FF0E02E
:101D8000E258FD4F90838F5F80938B0580E08160E8
:101D9000089582E080938B0588E0EEE7F2E0DF01B2
:101DA0001D928A95E9F7109284051092830580E0D0
:101DB0000895AEE7B2E0E6E8F2E088E001900D9227
:101DC0008150E1F70895A6E8B2E0EEE7F2E088E09E
:101DD00001900D928150E1F708950F931F93CF93D7
:101DE000DF931092770210927A02F8940E943903DE
:101DF0008B9A20E048EB5BE004C0A895CA010197EC
:101E0000F1F72150D1F78B9878942FE088E190E09A
:101E10000FB6F894A89581BD0FBE21BD00E0C4ECBB
:101E2000D9E00E94D40D80917702882381F4219714
:101E300071F480916B01813051F02CE088E190E0E9
:101E40000FB6F894A89581BD0FBE21BDFFCFA89510
:101E50000E944A0380917A02882369F0815080931E
:101E60007A02882341F40E9409160E9472060E9499
:101E7000D71A10927A020E947607182F882389F2C7
:101E800080917B028823C1F40E94B10D882309F45C
:101E90001E7F9091880580918205981769F4909132
:101EA000890580918305981739F490918A0580916E
:101EB0008405981709F41B7F20917B022223A1F04F
:101EC00080917C0290917D02019790937D02809396
:101ED0007C02019749F41160822F90E0880F991FCE
:101EE00090937D0280937C0210FF1CC080910904B6
:101EF00084FF18C080914C01882329F08EE792E07E
:101F000068E00E94C40D8EE792E068E00E948A04B7
:101F1000A6E8B2E0EEE7F2E088E001900D92815091
:101F2000E1F701E012FF13C08091350484FF0FC078
:101F300082E895E063E00E948504A8E8B5E0E2E865
:101F4000F5E083E001900D928150E1F703C001308C
:101F500009F067CF80916B01823029F40E94D71A73
:101F600010926B0113C060914A0170E080E090E034
:101F700020E335E740E050E00E94722060934C057A
:101F800070934D0580934E0590934F0500E049CF27
:101F900080911306823019F08330A9F405C0809136
:101FA0001406809378020FC080E090E06AEC0E94F3
:101FB0004A212CE088E190E00FB6F894A89581BD05
:101FC0000FBE21BDFFCF80E00895809112068230C0
:101FD00019F0833001F50DC0ABEDB0E0E0E9F5E0BC
:101FE00082E701900D928150E1F78FE080937A02B1
:101FF00008956091130670E07695762F66277795A1
:10200000679560507E4F80E995E048E750E00E9478
:1020100029210E94720608951F93DC01462F8091AA
:102020007902882309F486C06130A9F51C911770E4
:1020300080916B01813019F50E94D71A10926B01C3
:1020400088E893E1909386058093850580914A0105
:1020500090E020E335E7AC01429FC001439F900D23
:10206000529F900D1124AA2797FDA095BA2F809317
:102070004C0590934D05A0934E05B0934F0580916C
:102080001906811729F010931906812F0E94A61AAC
:10209000109279024FC08230A9F421E136E0C901E3
:1020A000BD0150E00E94012180911206813019F497
:1020B0000E94C80F3FC08330E9F5809116068093D7
:1020C000780238C08330B1F580911006833831F53D
:1020D00011968C91119780938D0512968C91129781
:1020E00080938E0513968C91139780938F058FE7BD
:1020F0008093100644501496109287050FC080916B
:102100008705E82FF0E0E457FA4F9D9194838F5FA5
:10211000809387052150209310064150209110068E
:10212000442369F7283010F080E005C0109279024E
:102130000E94E50F81E01F91089590911206923060
:1021400019F0933059F510C090938C0590938D053C
:1021500082E780938F05A0E9B5E0EBEDF0E0019018
:102160000D928150E1F71AC082E080938C05909324
:102170008D056091130660938E0588E780938F0527
:1021800070E07695762F66277795679560507E4F3D
:1021900080E995E048E750E00E94112180E0089531
:1021A000FC0141E0409377022EE732E030931A04BD
:1021B0002093190480818076803209F073C0818178
:1021C000813001F58281938142E08030940751F0A3
:1021D00023E08130920741F48AEB90E090931A0457
:1021E0008093190488E008958250934009F05AC002
:1021F0000E949D108CE895E090931A048093190436
:1022000084E80895893011F58281938122E080303D
:10221000920741F484819581892B09F045C0409350
:10222000790212C043E08130940729F482E0809360
:10223000790287E007C082509340B1F583E0809334
:10224000790283E8809310068FEF0895823019F4A5
:102250008BE792E021C08A3099F4238120937B029E
:10226000822F90E0880F991F90937D0280937C02CB
:10227000222319F04093DE0015C01092DE0012C038
:10228000833031F48381882369F41092D400089557
:102290008B3041F484ED90E090931A0480931904FC
:1022A00081E0089580E008958FEF0895982FEAE384
:1022B000F2E08491981711F481E00895319682E05C
:1022C000E836F807B1F780E00895282F8F3F31F402
:1022D00010928F0281E08093950208958E3F21F045
:1022E0008D3F29F410928F021092950208958091EB
:1022F0009502882351F080918F02E82FF0E0E15A97
:10230000FC4F20838F5F80938F0280919302909186
:102310009402019668EC70E00E94B120FC01909359
:1023200094028093930280919102909192028E1771
:102330009F0759F4009719F487EC90E001C00197CA
:1023400090939402809393020895EA56FD4F208360
:102350000895209191023091920280919302909180
:1023600094022817390711F480E00895C9010196F5
:1023700068EC70E00E94B120FC019093920280937F
:102380009102EA56FD4F8081089540E0209191022C
:10239000309192028091930290919402281739070C
:1023A00009F441E0842F0895109292021092910254
:1023B000109294021092930210928F021092900247
:1023C0001092690310926A0310926B0310926C03CF
:1023D000E6E6F5E0119211921192119285E0E63B4A
:1023E000F807C1F708950F931F93182FE82FF0E017
:1023F000E65CFE4F0491662309F449C080935E03B6
:102400001092690310926A0310926B0310926C038E
:1024100010921C06863419F0883449F50EC08FEFEF
:102420000E94651180EE0E94651182E10E94651193
:1024300080EE0E9465118CE726C08DEF0E94651129
:1024400081EE0E94651184E10E94651187E70E9478
:10245000651181EE0E94651180EF0E94651184E193
:102460000E94651180EF0E94651187E735C08FEFEC
:102470000E946511812F0E945611813019F480EE5F
:102480000E946511802F0E9465118EEF25C08091FA
:102490005E03811711F410928F02163489F480EED6
:1024A0000E94651180EF0E9465118CE70E94651102
:1024B00080EE0E94651180EF0E94651182E10CC0E0
:1024C000812F0E945611813019F480EE0E9465110F
:1024D00080EF0E946511802F0E9465118CEF0E9491
:1024E00065111F910F9108951F93162F8E3F11F0C4
:1024F00080931B060E94761410931C061F9108956A
:10250000EF92FF920F931F9380911C06843009F481
:10251000E1C0853030F4882371F0833009F0E7C0E2
:10252000D7C0883009F4DBC08C3009F45DC0853039
:1025300009F0DDC0D2C020919102309192028091C9
:102540009302909194022817390711F40E9476079C
:102550000E94A911182F8C3F09F4CAC0882361F08A
:1025600060E00E9474121092690310926A03109244
:102570006B0310926C03BCC080918F02882309F416
:10258000B7C08091690390916A03A0916B03B091E9
:102590006C030196A11DB11D8093690390936A039A
:1025A000A0936B03B0936C032091D50062E3269F48
:1025B000900111242C593F4F442737FD4095542F4B
:1025C00082179307A407B5070CF492C01092690311
:1025D00010926A0310926B0310926C031092900297
:1025E0008CE080931C0684C080919002882311F4B3
:1025F0000E94760780918F028823C1F0209191027A
:102600003091920280919302909194022817390799
:1026100069F48091690390916A03A0916B03B09172
:102620006C030197A105B10561F40FC010921C065F
:102630001092690310926A0310926B0310926C035C
:1026400056C0809190028823A9F090919002E92FC2
:10265000F0E0E15AFC4F80819F5F909390026CE024
:102660000E94741260918F02809190020E949120CA
:1026700090939002E0906903F0906A0300916B03DD
:1026800010916C030894E11CF11C011D111D609157
:10269000D6007091D7008091D8009091D9002AE09F
:1026A00030E040E050E00E9472209B01AC012D5FC1
:1026B0003F4F4F4F5F4FC801B7010E94E620609324
:1026C000690370936A0380936B0390936C030FC04C
:1026D00082E00AC08BEA65E008C083E805C00E947A
:1026E000D4110E94511B8AEA60E00E94741210E02B
:1026F000812F90E01F910F91FF90EF9008951F930D
:102700000E948514182F60911C06623099F0633086
:1027100020F4613009F073C007C0663009F448C086
:10272000673009F06CC00FC0853F09F4A6C08AEF7E
:1027300061E0A5C00E94D411112311F060E001C036
:1027400063E08AEF9CC0682F70E0CB0180769070C8
:10275000A5E095958795AA95E1F78093D500AB0103
:1027600048715070F3E055954795FA95E1F780E090
:1027700090E021E030E003C0220F331F0196841760
:102780009507D4F367707070269FC001279F900D46
:10279000369F900D1124AA2797FDA095BA2F8093FC
:1027A000D6009093D700A093D800B093D90065C00D
:1027B000982F80FF04C080911906846003C0809127
:1027C00019068B7F8093190691FF04C0809119062A
:1027D000816003C0809119068E7F8093190692FF55
:1027E00004C080911906826003C0809119068D7F14
:1027F00080931906809119060E94A61A3EC0133FC5
:1028000041F1143F60F41E3E99F01F3E18F41D3E46
:10281000A1F51CC0103FB9F0123F79F50BC0163F6F
:10282000D9F0173F50F11E3F59F01F3F31F505C059
:102830008EEE25C08AEF64E022C08AEF68E01FC0F8
:1028400080911B061CC08AEF62E019C08AEF66E027
:1028500016C08AEF67E013C081E08093D50085E061
:1028600090E0A0E0B0E08093D6009093D700A093D2
:10287000D800B093D9000E94D4118AEF60E00E9482
:10288000741280E090E01F910895CF93DF9388E069
:1028900080931C06F8940E949D152FE088E190E03B
:1028A0000FB6F894A89581BD0FBE21BD7894C0E005
:1028B000D0E0A89580911E0682FF10C0CC3FD105C4
:1028C00059F020919102309192028091930290915F
:1028D00094022817390711F40E947F1380911E0675
:1028E00084FFE7CF0E948012EC01E3CF80936E0358
:1028F000F89480911E068F7E80931E0680911E069E
:10290000886080931E0678940895F89480911E063E
:102910008B7F80931E06789480916D0308958FECD1
:1029200082BF80911D06833000F58B98939A809129
:102930001E0680FF23C0829BA3C080911D068130AC
:1029400031F0813040F0823009F0F6C006C0839942
:1029500002C08DE096C082E094C080911E0683FF85
:10296000EBC093988B9A84E28CC080911D068A31CB
:1029700008F079C080911E0680FD08C080911E0677
:10298000816080931E068A98929A0895829B76C0F1
:1029900080911D06873140F4803118F58D3061F04B
:1029A0008F3009F055C00CC08831E1F1883158F101
:1029B000893109F04DC049C080911E068D7F4DC000
:1029C00080911E068B7F80931E06839B05C080E846
:1029D00080936D0381E014C01092700310926D0318
:1029E00037C080916D03869580936D03839B30C0C3
:1029F00080916D03806880936D03809170038F5F79
:102A00008093700325C0839B05C0809170038F5F06
:102A1000809370038091700380FD1AC080911E0620
:102A2000826010C0839905C080911E0682608093E9
:102A30001E0680911E0681FD0BC093988B9A809193
:102A40001E06846080931E0603C08B98939A6CC008
:102A500092988A9A80911E068E7F80931E0680919E
:102A60001D068F5F0EC080911D068F3208F064C076
:102A700080911E0680FF10C0829906C08B98939AA1
:102A800081E080931D06089580911E068E7F8093BD
:102A90001E0692988A9A089580911E0681608093FE
:102AA0001E068A98929A80911D068C3228F48532EF
:102AB00080F48432E1F507C08D3299F18D32E8F06F
:102AC0008E32A9F531C080916E0380936F0310920E
:102AD000700380916F0380FF08C08B98939A809158
:102AE00070038F5F8093700302C093988B9A8091DC
:102AF0006F03869580936F031AC08091700380FFE7
:102B000003C093988B9A02C08B98939A80911E066B
:102B1000877F80931E0680911E06806180931E062B
:102B200006C08B98939A03C010921D060895809159
:102B30001D068F5F80931D06089510921D0681E18A
:102B400080931E068A98929A8B98939A0E94FD16FB
:102B500082E00E94241780E06FE874E10E945A1717
:102B600089B7816089BF8FEC82BF08958FEF8BBBDF
:102B70001ABA88BB17BA85BB14BA81EF82BB83E04F
:102B800081BB80E090E00895482FC698A0E2B6E0AF
:102B9000FB0102C081918D938E2F861B8417D0F389
:102BA00040931F060895C798DB0105C0F0E0E05E82
:102BB000F94F80818D93EA2FE61B90911F06E9174C
:102BC000A8F3809120068F5F80932006892F0895B7
:102BD000A49AAC9888E28A95F1F7CF9B09C0B29984
:102BE00003C01092DB0007C08091DB00823018F038
:102BF00081E08093DB008091DB00882329F0909AAC
:102C00008898899A91980895889A9098919A899825
:102C100008958BED90E060E071E042E750E00E94A3
:102C20002921089582E090E00E942121863069F0F8
:102C30008BED90E060E071E042E750E00E942921D6
:102C400082E090E066E00E9439210895EF92FF92C1
:102C50001F93CF93DF93C0E0D0E08CE2E82E81E0B9
:102C6000F82E1FC084EF91E0F7013197F1F701973B
:102C7000D9F78FEF0E940220182F84EF91E0F7011F
:102C80003197F1F70197D9F7112359F08091F000AE
:102C900060914501709146018F5F4FEF0E940F20B8
:102CA00005C02196C333D105E9F610E0812FDF91ED
:102CB000CF911F91FF90EF9008950E947C1B80EAB6
:102CC0006FEF0E94991B84EC95E10E94A01B83ED9D
:102CD00095E10E94A51B08950E9412160E94B61548
:102CE0000E945D168BED90E060E071E042E750E0FD
:102CF0000E9411218091DE0080FF03C081E080935B
:102D0000DE008091DD0080FF03C081E08093DD0064
:102D10008091DC00843018F081E08093DC000E9418
:102D2000E8150E94720660914A0170E080E090E030
:102D300020E335E740E050E00E94722060934C05AC
:102D400070934D0580934E0590934F050E94261673
:102D50008093DA00813021F081B3806E81BB02C0A4
:102D60000E94D71A8BED90E060E071E042E750E0FE
:102D70000E94292108950E946C168091DB0088230F
:102D800029F00E94511B0E94ED0E04C00E94511BAD
:102D90000E94451480E090E00895089580E090E05E
:102DA000FC01EE0FFF1FEF58FC4F118210820196BD
:102DB00088309105A9F783B7887F826083BF12BEF0
:102DC00010926B0610926C0610926D0610926E06B1
:102DD0008EB5887F82608EBD1DBC1CBC85B5887F8A
:102DE000826085BD14BC1092730610927406109216
:102DF0007506109276067894089583B7887F82606E
:102E000083BF12BE10926B0610926C0610926D0674
:102E100010926E0608958EB5887F82608EBD1DBCAF
:102E20001CBC089585B5887F826085BD14BC109256
:102E30007306109274061092750610927606089525
:102E400089B7806489BF089593B7987F982B93BF03
:102E500008959EB5987F982B9EBD089595B5987F4F
:102E6000982B95BD089583B7E82FF0E0E770F070D8
:102E7000EE0FFF1FEE5AFC4F25913491C9010895C2
:102E80008EB5E82FF0E0E770F070EE0FFF1FEE5AFE
:102E9000FC4F25913491C901089585B5E82FF0E0E4
:102EA000E770F070EE0FFF1FE25AFC4F259134914E
:102EB000C9010895883040F4E82FF0E0EE0FFF1FBD
:102EC000EF58FC4F718360830895883040F4E82FF9
:102ED000F0E0EE0FFF1FEF58FC4F118210820895B3
:102EE000EF92FF920F931F93CF93DF93EC0112B7F2
:102EF00010926F0610927006109271061092720670
:102F000083B7E82FF0E0E770F070EE0FFF1FEE5A86
:102F1000FC4F2591349140E050E060E07BE187EB8D
:102F200090E00E94C420B901CA01693B2DE87207F4
:102F300026E0820720E09207A0F437E2C131D307F0
:102F400080F49E0140E050E00E94722028EE33E0C1
:102F500040E050E00E94C420C901DA01BC01CD016B
:102F600021C028EE33E040E050E00E94C420CA01B6
:102F7000B9019E0140E050E00E94722013C0809190
:102F80006F0690917006A0917106B091720685B798
:102F90008F7885BF85B7806885BF889585B78F771F
:102FA00085BF08C09B01AC01210F311D411D511D82
:102FB00079018A0120916F06309170064091710667
:102FC0005091720682B790E0A0E0B0E0542F432FFA
:102FD000322F2227822B932BA42BB52B8E159F05E6
:102FE000A007B10760F2DF91CF911F910F91FF9081
:102FF000EF90089510926B0610926C0610926D0679
:1030000010926E06089520916B0630916C064091E7
:103010006D0650916E06B901CA01089510927306AB
:1030200010927406109275061092760608952091FB
:103030007306309174064091750650917606B90179
:10304000CA010895893031F48FB582608FBD8FB584
:103050008E7F0AC08A3019F48FB5826002C08FB5A6
:103060008D7F8FBD8FB581608FBD1BBC1ABC19BC15
:1030700018BC08952FB52E7F2FBD2FB522602FBD10
:103080002EB528602EBD2EB520612EBD97BD86BD04
:103090001BBC1ABC19BC18BC08958FB58D7F8FBDA1
:1030A0008FB58E7F8FBD8FB58F778FBD8FB58F7B9F
:1030B0008FBD8FB58F7D8FBD8FB58F7E8FBD0895EE
:1030C0008FB580688FBD8FB58F7B8FBD08958FB50D
:1030D00080628FBD8FB58F7E8FBD08958FB58F773E
:1030E0008FBD8FB58F7B8FBD08958FB58F7D8FBDC1
:1030F0008FB58F7E8FBD089585B5877F85BD85B5DA
:10310000806485BD13BC089585B5806285BD85B595
:103110008F7E85BD089585B58F7D85BD85B58F7EF4
:1031200085BD089583BD08959BBD8ABD089599BD51
:1031300088BD08951F920F920FB60F9211242F93FE
:103140003F934F935F936F937F938F939F93AF932F
:10315000BF93EF93FF9380916B0690916C06A091C3
:103160006D06B0916E060196A11DB11D80936B0690
:1031700090936C06A0936D06B0936E0680916F06D7
:1031800090917006A0917106B09172060196A11DF2
:10319000B11D80936F0690937006A0937106B09353
:1031A00072068091710390917203892B29F0E0914E
:1031B0007103F09172030995FF91EF91BF91AF9167
:1031C0009F918F917F916F915F914F913F912F913F
:1031D0000F900FBE0F901F9018951F920F920FB671
:1031E0000F9211242F933F934F935F936F937F938D
:1031F0008F939F93AF93BF93EF93FF93809173034C
:1032000090917403892B29F0E0917303F09174037A
:103210000995FF91EF91BF91AF919F918F917F9110
:103220006F915F914F913F912F910F900FBE0F9033
:103230001F9018951F920F920FB60F9211242F9383
:103240003F934F935F936F937F938F939F93AF932E
:10325000BF93EF93FF938091730690917406A091B2
:103260007506B09176060196A11DB11D8093730677
:1032700090937406A0937506B093760680917B03B5
:1032800090917C03892B29F0E0917B03F0917C03E2
:103290000995FF91EF91BF91AF919F918F917F9190
:1032A0006F915F914F913F912F910F900FBE0F90B3
:1032B0001F9018951F920F920FB60F9211242F9303
:1032C0003F934F935F936F937F938F939F93AF93AE
:1032D000BF93EF93FF9380917F0390918003892B9D
:1032E00029F0E0917F03F09180030995FF91EF9120
:1032F000BF91AF919F918F917F916F915F914F910E
:103300003F912F910F900FBE0F901F9018951F9215
:103310000F920FB60F9211242F933F934F935F9309
:103320006F937F938F939F93AF93BF93EF93FF938D
:103330008091750390917603892B29F0E0917503B4
:10334000F09176030995FF91EF91BF91AF919F9115
:103350008F917F916F915F914F913F912F910F903E
:103360000FBE0F901F9018951F920F920FB60F92DD
:1033700011242F933F934F935F936F937F938F937A
:103380009F93AF93BF93EF93FF93809177039091B7
:103390007803892B29F0E0917703F0917803099560
:1033A000FF91EF91BF91AF919F918F917F916F911D
:1033B0005F914F913F912F910F900FBE0F901F90F3
:1033C00018951F920F920FB60F9211242F933F93CF
:1033D0004F935F936F937F938F939F93AF93BF931D
:1033E000EF93FF938091790390917A03892B29F0D1
:1033F000E0917903F0917A030995FF91EF91BF91E4
:10340000AF919F918F917F916F915F914F913F917C
:103410002F910F900FBE0F901F9018951F920F9233
:103420000FB60F9211242F933F934F935F936F9397
:103430007F938F939F93AF93BF93EF93FF9380916D
:103440007D0390917E03892B29F0E0917D03F0911B
:103450007E030995FF91EF91BF91AF919F918F915D
:103460007F916F915F914F913F912F910F900FBE80
:103470000F901F901895DC0183309105A8F4FC0192
:10348000EE0FFF1FE45AFE4F0190F081E02DAE5980
:10349000BE4F81E090E00C9002C0880F991F0A9403
:1034A000E2F72081282B20830895DC0183309105E9
:1034B000B0F4FC01EE0FFF1FE45AFE4F0190F081C3
:1034C000E02DAE59BE4F81E090E00C9002C0880F15
:1034D000991F0A94E2F7809520812823208308957C
:1034E000089508950895089580E090E00E94551A87
:1034F00088EE93E02CE231E0F9013197F1F7019782
:10350000D9F782E090E00E94551A88EE93E02CE211
:1035100031E0F9013197F1F70197D9F780E090E0B8
:103520000E94551A88EE93E02CE231E0F9013197C0
:10353000F1F70197D9F708950F9380E060E040E03C
:1035400020E00FEF0E94A31F0F9108951F93682F93
:103550008091DA00882349F0462F4470862F8170CD
:10356000627020E00E94D71F20C0162F60FF05C0A8
:1035700080E090E00E94551A04C080E090E00E9434
:103580003B1A11FF03C081E090E008C081E090E0A9
:103590000E943B1A12FF05C082E090E00E94551A7B
:1035A00004C082E090E00E943B1A1F9108950F939F
:1035B0001F93809119060E94A61A00E315E7C8011F
:1035C0000197F1F784E160E041EF50E02FEF0E94B6
:1035D0003F20C8010197F1F7809147019091480180
:1035E0006FEF0E943B1FC8010197F1F78091EF0038
:1035F000682F70E0660F771F660F771F635D7E4F41
:103600004FEF0E942020C8010197F1F78091EF0051
:103610006FEF0E944C1F8091F00060914501709106
:1036200046018F5F4FEF0E940F20C8010197F1F70D
:103630008091DF006FEF0E940D1FC8010197F1F725
:1036400080EE90E06FEF0E94D91EC8010197F1F75C
:1036500080914B01882331F460E040E020E00FEFDF
:103660000E94A31F1F910F9108950F931F9380E055
:103670000E94A61A08EB1BE0C8010197F1F78DE440
:1036800091E06FEF0E94D91EC8010197F1F780E029
:1036900060E040E020E00FEF0E94A31F1F910F9118
:1036A0000895809119060E94A61A08959C018091A0
:1036B000DA00882379F08091810390918203821748
:1036C000930741F03093820320938103822F84700B
:1036D0000E94C81F0895BC010898099880EE9EE2D8
:1036E0000E949D20603130F0862F90E040979595A4
:1036F0008795682F60B90895A89AA99A1092FB033C
:103700001092FA031092FD031092FC0380E991E0FD
:103710000E946B1B86B7846086BF10928403109250
:10372000830386B7816086BF86B7806486BF78943E
:10373000089590E0611191E08E7F982B92B90895E1
:103740009093FB038093FA0308959093FD03809375
:10375000FC03089586B78F70806A86BF089586B788
:103760008F70806D86BF0895DF93CF9300D000D017
:10377000CDB7DEB780EE9EE2A0E0B0E089839A8309
:10378000AB83BC8306B607FC12C089819A81AB81EA
:10379000BC810197A109B10989839A83AB83BC835A
:1037A0000196A11DB11D0097A105B10559F70F9014
:1037B0000F900F900F90CF91DF91089583B986B746
:1037C0008F70806886BF0895882321F086B78F7038
:1037D000806C03C086B78F70806886BF089583B100
:1037E000089581B10895EF92FF920F931F93182FC0
:1037F000062FF42EE52E8091830390918403892B6C
:10380000D1F08091650190916601A0916701B0911E
:1038100068010197A109B109809365019093660140
:10382000A0936701B09368010196A11DB11D009797
:10383000A105B10501F782E090E0909384038093A5
:103840008303602F70E080E090E020EE3EE240E0F5
:1038500050E00E947220609365017093660180932E
:103860006701909368011E7F10938503A6E8B3E07B
:103870002F2D3E2DC901FC0102C081918D938E2F09
:103880008F198017D0F31092D6030093D70386B711
:103890008F70806A86BF1F910F91FF90EF900895FF
:1038A000FF920F931F93282F162F042FF52E809130
:1038B000830390918403892BD1F0809165019091CD
:1038C0006601A0916701B09168010197A109B10952
:1038D0008093650190936601A0936701B09368019E
:1038E0000196A11DB11D0097A105B10501F783E067
:1038F00090E0909384038093830321602093850359
:103900001092F8031093F90386B78F70806A86BF10
:10391000612F70E080E090E020EE3EE240E050E079
:103920000E94722060936501709366018093670125
:10393000909368018091830390918403892B39F4DB
:10394000A8EDB3E0802F9F2D9C01F9011DC080914F
:10395000650190916601A0916701B091680101979E
:10396000A109B1098093650190936601A093670155
:10397000B09368010196A11DB11D0097A105B10585
:10398000C9F6DECF8D9181938E2F801B8117D0F3E6
:103990001F910F91FF9008950F931F93CF93DF9383
:1039A000182F062FEA0186B78E7F86BF86B78F70E5
:1039B000806A86BF0E94B41B1E7F13B986B78F70C2
:1039C000806886BF0E94B41B81B1883159F021E024
:1039D0000CC0899183B986B78F70806886BF0E94BA
:1039E000B41B01500023A9F720E086B78F70806DCB
:1039F00086BF80EE9EE2A0E0B0E0809365019093E8
:103A00006601A0936701B093680106B604FC1AC072
:103A10008091650190916601A0916701B091680164
:103A20000197A109B1098093650190936601A09364
:103A30006701B09368010196A11DB11D0097A10512
:103A4000B10519F786B7816086BF822FDF91CF91CC
:103A50001F910F9108950F931F93CF93DF93182F0A
:103A6000062FEA0186B78E7F86BF86B78F70806A81
:103A700086BF0E94B41B116013B986B78F7080682F
:103A800086BF0E94B41B81B1803451F091E012C016
:103A90008FEF0E94E41B0E94B41B83B189930150F5
:103AA0000230B0F780E00E94E41B0E94B41B83B197
:103AB000888390E086B78F70806D86BF86B78160FF
:103AC00086BF892FDF91CF911F910F9108951F928B
:103AD0000F920FB60F9211242F933F934F935F9342
:103AE0006F937F938F939F93AF93BF93EF93FF93C6
:103AF00081B1887F803609F49BC0813670F58832A9
:103B000009F45FC0893298F4803109F457C08131DB
:103B100038F4882309F4E8C0883009F0EDC04EC0BD
:103B2000883109F44EC0803209F0E6C0DDC080342F
:103B300009F473C0813438F4803309F4D5C0883374
:103B400009F0DAC05BC0803509F45CC0883509F43F
:103B500049C0883409F0D0C0C7C0883909F480C092
:103B60008939B0F4883709F463C0893738F4883666
:103B700009F45EC0803709F0BFC05AC0883809F424
:103B80006FC0803909F45DC0803809F0B5C059C0F4
:103B9000803B09F479C0813B38F4803A09F464C071
:103BA000883A09F0A9C070C0803C09F499C0883CEB
:103BB00009F496C0883B09F09FC07AC080918503C4
:103BC0000FC09091D6038091D703981708F08CC04E
:103BD000E92FF0E0EA57FC4F80819F5F9093D60376
:103BE00083B979C08091F80393B1E82FF0E0E852EF
:103BF000FC4F90838F5F8093F80376C086B78F70F9
:103C0000806875C08091F80393B1E82FF0E0E85226
:103C1000FC4F90838F5F8093F8032091F80330E08E
:103C20008091F90390E0019728173907CCF416C06A
:103C300085E090E090938403809383031092F803CF
:103C400046C08091F80393B1E82FF0E0E852FC4FB2
:103C500090838F5F8093F803803210F48FEF01C060
:103C600080E00E94E41B48C086B78F70806C86BFDE
:103C7000E091FA03F091FB033097D1F18091F803C2
:103C800068ED73E0099534C084E090E0909384037C
:103C900080938303E091FC03F091FD03309731F0B2
:103CA00080E566E873E009958093D7031092D60308
:103CB0009091D603E92FF0E0EA57FC4F808183B959
:103CC0009F5F9093D6038091D703981720F486B70F
:103CD0008F70806C03C086B78F70806886BF0CC001
:103CE00086B78F70806C03C086B78F70806D86BF7B
:103CF0001092840310928303FF91EF91BF91AF91D3
:103D00009F918F917F916F915F914F913F912F91F3
:103D10000F900FBE0F901F90189520918303309144
:103D20008403C90108950F931F93CF93DF93FC0180
:103D300010818091DA00813039F54423F9F0812F28
:103D40008068808380EBAF010E94CC1C8823E1F463
:103D5000012F0F7310E0CCE2D1E080EB61E040E294
:103D600056E00E942B1D80912006801759F0CE014D
:103D70000197F1F71F5F1A3081F706C080EBAF01A2
:103D80000E94CC1C81E001C080E0DF91CF911F91A7
:103D90000F910895462F9CE29093200693E0909314
:103DA00021068093220680E296E063E00E94931E43
:103DB0000895AC01762F8BE28093200681E18093F9
:103DC0002106A0E2B6E020E030E0FA01E20FF31FA6
:103DD000808112968C9312972F5F3F4F11962F3050
:103DE000310599F780E296E060912106472F0E9405
:103DF000931E08959AE29093200695E090932106F1
:103E000080932206609323064093240680E296E086
:103E100065E0422F0E94931E0895462F99E29093E9
:103E2000200693E0909321068093220680E296E09C
:103E300063E00E94931E089598E29093200694E018
:103E400090932106809322066093230680E296E0F9
:103E500064E00E94931E0895462F9BE190932006F4
:103E600093E0909321068093220680E296E063E03F
:103E70000E94931E0895462F2AE12093200624E0F5
:103E800020932106909323068093220680E296E0F9
:103E900064E00E94931E0895462F98E190932006B7
:103EA00093E0909321068093220680E296E063E0FF
:103EB0000E94931E0895EF920F93382F90E0860F83
:103EC000911D459714F080E024C086E18093200680
:103ED00080E480932106309322066093230630E02D
:103EE0000DC0832F90E0FC01EE0FFF1FE80FF91FBC
:103EF000E05EF94F0683458324833F5F809122066D
:103F0000381778F380E296E0609121064E2D0E94EA
:103F1000931E0F91EF9008950F9395E190932006D3
:103F200096E09093210680932206409323066093A7
:103F300024062093250680E296E066E0402F0E944A
:103F4000931E0F9108950F9394E19093200696E0AD
:103F500090932106809322064093230660932406C3
:103F60002093250680E296E066E0402F0E94931E93
:103F70000F910895462F85E08093200683E080937B
:103F8000210680E296E063E00E94931E81E008959E
:103F9000882311F084E401C084E08093200680E24D
:103FA00096E061E040E00E94931E81E0089593E076
:103FB0009093200690932106882311F084E001C09D
:103FC00080E061118260411181608093220680E26D
:103FD00096E060912106422F0E94931E08951F9340
:103FE000162F82E08093200683E0809321061092B2
:103FF000220680E296E063E0412F0E94931E812F0B
:104000001F910895482F81E08093200682E08093DD
:10401000210680E296E062E00E94931E08951092CD
:10402000200695E090932106809322067093240643
:104030006093230680E296E065E00E94931E089557
:10404000FB0199E19093200697E09093210686303A
:1040500008F085E08093220680819181A281B3815E
:104060008093230690932406A0932506B0932606FA
:1040700080E296E0609121060E94931E0895FF92CF
:104080000F931F93382FA42F752FF22EE82FF0E0F7
:10409000CF01860F911D459714F080E01FC000E20C
:1040A00016E087E18093200680E480932106309318
:1040B000220660932306A8014C5F5F4F9F01220FE9
:1040C000331F2E0F3F1FCA016A2FA9010E94012131
:1040D000C801609121064F2D0E94931E1F910F91E0
:1040E000FF900895629FD001739FF001829FE00DC1
:1040F000F11D649FE00DF11D929FF00D839FF00D67
:10410000749FF00D659FF00D9927729FB00DE11D12
:10411000F91F639FB00DE11DF91FBD01CF011124EF
:104120000895991B79E004C0991F961708F0961B13
:10413000881F7A95C9F780950895AA1BBB1B51E18A
:1041400007C0AA1FBB1FA617B70710F0A61BB70B07
:10415000881F991F5A95A9F780959095BC01CD01AC
:10416000089597FB092E07260AD077FD04D0E5DFD6
:1041700006D000201AF4709561957F4F0895F6F7E8
:10418000909581959F4F0895A1E21A2EAA1BBB1B03
:10419000FD010DC0AA1FBB1FEE1FFF1FA217B30713
:1041A000E407F50720F0A21BB30BE40BF50B661F29
:1041B000771F881F991F1A9469F7609570958095ED
:1041C00090959B01AC01BD01CF01089597FB092E8D
:1041D00005260ED057FD04D0D7DF0AD0001C38F4D6
:1041E00050954095309521953F4F4F4F5F4F089523
:1041F000F6F790958095709561957F4F8F4F9F4F03
:104200000895FB01DC0102C001900D924150504025
:10421000D8F70895DC0101C06D9341505040E0F79C
:104220000895DC01CB01FC01E199FECF06C0FFBB84
:10423000EEBBE09A31960DB20D9241505040B8F766
:104240000895E199FECF9FBB8EBBE09A99278DB36D
:104250000895DC01A40FB51F4150504048F0CB0138
:10426000840F951F2E910E943A2141505040D0F763
:104270000895262FE199FECF9FBB8EBBE09A019750
:104280000DB2021631F02DBB0FB6F894E29AE19A06
:104290000FBE0895262FE199FECF9FBB8EBB2DBB8D
:1042A0000FB6F894E29AE19A0FBE01960895F89439
:0242B000FFCF3E
:1042B2005AFF2D00060413091E00091F00092000E1
:1042C2000921000922000923000924000925000907
:1042D2002600091E27091E1E091E1F131511160688
:1042E2000F1304180C11160B1210130A1807080FDB
:1042F200081107130A07150C170F091707110018E1
:10430200130011181008160600704C313530323087
:104312003500000001000200040008001000200027
:104322004000800001020A000000010100000000BC
:104332000808080505080808050508080805050312
:104342001400FAFA00FAFA00FA6400FAFA0032FAF1
:104352000000FAFA0000FAFA0064FA0000FA00001B
:10436200FA0000FA0064FA00FAFA00FA000000000B
:10437200FA0032FA00FAFA00FA6400FA6400000065
:10438200000105000002050000030105010401050A
:1043920001050105010401F401041E0100070707DC
:1043A2000707070707070707070707073200320053
:0A43B2003200050607E02E000000AF
:107C000060E8822F8F7711F4F8947894F894789440
:107C1000C90102969C018F7711F4F8947894625010
:047C200081F708954B
:00000001FF
